:100000000C9435000C945D000C945D000C945D0024
:100010000C945D000C945D000C945D000C945D00EC
:100020000C945D000C945D000C945D000C945D00DC
:100030000C945D000C945D000C945D000C945D00CC
:100040000C94D6010C945D000C9446020C94200292
:100050000C945D000C945D000C945D000C945D00AC
:100060000C945D000C945D00430411241FBECFEF7F
:10007000D8E0DEBFCDBF14E0A0E0B1E0E0EDFEE0EF
:1000800002C005900D92AA33B107D9F724E0AAE384
:10009000B4E001C01D92A63EB207E1F710E0C5E34F
:1000A000D0E004C02197FE010E947004C433D10740
:1000B000C9F70E9478020C9466070C9400003FB7C1
:1000C000F8948091450490914604A0914704B09122
:1000D000480426B5A89B05C02F3F19F00196A11D25
:1000E000B11D3FBFBA2FA92F982F8827BC01CD0182
:1000F000620F711D811D911D42E0660F771F881FE1
:10010000991F4A95D1F70895AF92BF92CF92DF928F
:10011000EF92FF920F931F93CF93DF936C017B01BC
:100120008B01040F151FEB015E01AE18BF08C0174D
:10013000D10759F06991D601ED91FC910190F081C0
:10014000E02DC6010995892B79F7C501DF91CF9183
:100150001F910F91FF90EF90DF90CF90BF90AF90E5
:100160000895FC01538D448D252F30E0842F90E0BD
:10017000821B930B541710F0CF96089501970895A2
:10018000FC01918D828D981761F0A28DAE0FBF2F6B
:10019000B11D5D968C91928D9F5F9F73928F90E0C1
:1001A00008958FEF9FEF0895FC01918D828D981730
:1001B00031F0828DE80FF11D858D90E008958FEF6D
:1001C0009FEF0895FC01918D228D892F90E0805C36
:1001D0009F4F821B91098F739927089589E494E0BA
:1001E0000E94E20021E0892B09F420E0822F08958B
:1001F00080E090E0892B29F00E94EE0081110C94A0
:1002000000000895FC01A48DA80FB92FB11DA35AB9
:10021000BF4F2C91848D90E001968F739927848F26
:10022000A689B7892C93A089B1898C918370806449
:100230008C93938D848D981306C00288F389E02DEA
:1002400080818F7D80830895EF92FF920F931F939B
:10025000CF93DF93EC0181E0888F9B8D8C8D981379
:100260001AC0E889F989808185FF15C09FB7F89485
:10027000EE89FF896083E889F989808183708064D1
:1002800080839FBF81E090E0DF91CF911F910F911C
:10029000FF90EF900895F62E0B8D10E00F5F1F4F2B
:1002A0000F731127E02E8C8D8E110CC00FB607FC3A
:1002B000FACFE889F989808185FFF5CFCE010E94C8
:1002C0000201F1CFEB8DEC0FFD2FF11DE35AFF4F33
:1002D000F0829FB7F8940B8FEA89FB898081806256
:1002E000CFCFCF93DF93EC01888D8823B9F0AA8913
:1002F000BB89E889F9898C9185FD03C0808186FDE1
:100300000DC00FB607FCF7CF8C9185FFF2CF80812F
:1003100085FFEDCFCE010E940201E9CFDF91CF91A1
:10032000089590913F04981380933F040895FC0131
:1003300001900020E9F73197AF01481B590BBC0130
:1003400089E494E00C948400CF93DF930E9497019A
:10035000EC0183EE91E00E9497018C0F9D1FDF91CD
:10036000CF910895CF93DF93CDB7DEB7DA950FB66F
:10037000F894DEBF0FBECDBF9E012B5F3E4FF9014B
:10038000419151919F0160E071E0CE0101960E9480
:100390008504CE0101960E949701D3950FB6F8947B
:1003A000DEBF0FBECDBFDF91CF9108951F920F9298
:1003B0000FB60F9211242F933F938F939F93AF9378
:1003C000BF938091410490914204A0914304B09165
:1003D00044043091400423E0230F2D3758F5019653
:1003E000A11DB11D209340048093410490934204C9
:1003F000A0934304B0934404809145049091460433
:10040000A0914704B09148040196A11DB11D8093AD
:10041000450490934604A0934704B0934804BF91C9
:10042000AF919F918F913F912F910F900FBE0F90A1
:100430001F90189526E8230F0296A11DB11DD2CF5B
:100440001F920F920FB60F9211242F933F934F9349
:100450005F936F937F938F939F93AF93BF93EF932C
:10046000FF9389E494E00E940201FF91EF91BF9114
:10047000AF919F918F917F916F915F914F913F913C
:100480002F910F900FBE0F901F9018951F920F92F3
:100490000FB60F9211242F938F939F93EF93FF9397
:1004A000E0915904F0915A048081E0915F04F09149
:1004B000600482FD1BC09081809162048F5F8F7306
:1004C00020916304821741F0E0916204F0E0E75B61
:1004D000FB4F958F80936204FF91EF919F918F91D5
:1004E0002F910F900FBE0F901F9018958081F4CF21
:1004F000CF93DF93CDB7DEB7DA950FB6F894DEBFB2
:100500000FBECDBF789484B5826084BD84B5816010
:1005100084BD85B5826085BD85B5816085BD8091CE
:100520006E00816080936E00109281008091810046
:10053000826080938100809181008160809381003E
:10054000809180008160809380008091B100846000
:100550008093B1008091B00081608093B000809161
:100560007A00846080937A0080917A008260809320
:100570007A0080917A00816080937A0080917A007D
:10058000806880937A001092C100E0915904F09144
:100590005A0482E08083E0915504F0915604108261
:1005A000E0915704F091580480E180831092610437
:1005B000E0915D04F0915E0486E08083E0915B044D
:1005C000F0915C04808180618083E0915B04F09114
:1005D0005C04808188608083E0915B04F0915C041E
:1005E000808180688083E0915B04F0915C0480816D
:1005F0008F7D808387EF91E00E94A40188EF84B90A
:1006000087E085B98E010F5F1F4F48EDE42E42E071
:10061000F42E5FE2C52E52E0D52E6FE1A62E62E0E9
:10062000B62E30E0832E30E0932E80913F041A994D
:1006300014C08530A1F0789487E092E00E94A40174
:1006400085E00E9491018114910479F30E94EE00EB
:10065000882339F30E940000E4CF853041F41A9BCF
:10066000F2CF84E192E00E94A40180E0EACF811100
:1006700004C01899E8CF81E0E4CF813021F4189BC1
:10068000E2CF82E0DECF8230C9F540903B0450904B
:100690003C0460903D0470903E0441145104610498
:1006A000710469F4219A29980E945F0060933B04C9
:1006B00070933C0480933D0490933E04C4CF0E9409
:1006C0005F0064197509860997096536710581050A
:1006D000910508F4B8CF10923B0410923C0410929C
:1006E0003D0410923E04299A219884E00E949101D1
:1006F00010923A0437E030930001A5CF843029F4FA
:100700001899A1CFF89483E09CCF833009F09BCF58
:10071000189B99CF909100012FEF290F2093000192
:1007200080913A049923A1F093B1969541E09427E2
:1007300090FB222420F8312CA10102C0440F551F48
:100740002A95E2F7782E742A70923A0484E079CFE1
:1007500093B192708236C1F4992391F02D9A86EE6E
:1007600091E09F938F93BF92AF920E94B2010F903E
:100770000F900F900F9082E00E949101789463CFC8
:100780002D9889EE91E0EDCF8836F0F4E82FF0E077
:10079000EE0FFF1FED5EFE4F408151812DEE31E0E7
:1007A000911102C022EF31E05F934F931F928F931C
:1007B0003F932F93DF92CF920E94B2010FB6F8942D
:1007C000DEBF0FBECDBFD7CF21E030E0992311F0BF
:1007D00030E020E03695322F222737952795782E66
:1007E000722A9BEF40E051E063E772E0791651F125
:1007F0009715A8F039EF40E051E062E572E073161A
:1008000009F140E051E06CE572E03715D8F048E7B7
:10081000741651F140E051E06EEC72E013C05DEFF0
:10082000751661F1751628F18EEF40E051E06CEA23
:1008300072E0781639F09FEF40E051E064EC72E02E
:100840007912E8CFC8010E9476041F930F931F927C
:100850007F92FF92EF920E94B2010F900F900F9043
:100860000F900F900F9087CF40E051E064E472E06A
:10087000E9CF40E051E063E872E0E4CF40E051E0CE
:1008800062E972E0DFCFE9E4F4E01382128288EEDD
:1008900093E0A0E0B0E084839583A683B78385E0EE
:1008A00091E09183808385EC90E09587848784EC48
:1008B00090E09787868780EC90E0918B808B81EC2D
:1008C00090E0938B828B82EC90E0958B848B86EC0E
:1008D00090E0978B868B118E128E138E148E089556
:1008E000EE0FFF1F0590F491E02D0994FB01DC0150
:1008F0004150504048F001900D920020C9F701C0CE
:100900001D9241505040E0F70895AEE0B0E0EBE8B2
:10091000F4E00C943D078C01FA0186E08C831A8385
:10092000098377FF02C060E070E8615071097E833F
:100930006D83A901BF01CE0101960E94B1044D81D2
:100940005E8157FD0AC02F813885421753070CF48A
:100950009A01020F131FF80110822E96E4E00C9406
:100960005907ABE0B0E0E7EBF4E00C942F077C0113
:100970003B018A01FC0117821682838181FFC8C175
:10098000CE0101965C01F7019381F30193FD8591FE
:1009900093FF81913F01882309F453C1853239F4D3
:1009A00093FD859193FF81913F01853229F4B70131
:1009B00090E00E94A106E7CF912C212C312CFFE181
:1009C000F31538F08B3211F190F4803209F1833253
:1009D00029F137FC3CC020ED280F2A3050F536FEB7
:1009E00020C08AE0989E200D1124922E06C08D32E0
:1009F00091F0803371F7689430F8F30193FD85919D
:100A000093FF81913F018111DACF21C0689431F8C1
:100A1000689432F8F2CF689433F8EFCF689434F8E2
:100A2000ECCFEAE02E9E200D1124222E689435F89A
:100A3000E4CF8E3229F436FC04C1689436F8DDCF59
:100A40008C3619F4689437F8D8CF8836B1F2982FDD
:100A50009F7D95549330E0F08336A1F18337C1F147
:100A6000833509F063C02801F2E04F0E511CF801F4
:100A7000C080D180692D70E036FC02C06FEF7FEF3F
:100A8000C6010E948B064C01689437F882010AC0A7
:100A90000C5F1F4FFFE3F98388248394912C650139
:100AA000E89437F833FE2DC0522C8114910471F56F
:100AB000552009F468CFB70180E290E00E94A106BA
:100AC0005A94F6CFF801808189830E5F1F4FE4CFDF
:100AD0002801F2E04F0E511CF801C080D180692D31
:100AE00070E036FC02C06FEF7FEFC6010E949606F1
:100AF0004C018201D5CFB70180E290E00E94A106AF
:100B00002A942814190409F0B0F7CECFF60137FC67
:100B1000859137FE81916F01B70190E00E94A10697
:100B200051105A94F1E08F1A9108BFCF843619F012
:100B3000893609F077C0F80137FE6BC0608171819A
:100B4000828193810C5F1F4FF32DFF763F2E97FF1D
:100B500009C090958095709561957F4F8F4F9F4FFD
:100B6000689437F82AE030E0A5010E94D106C82E2B
:100B7000CA188C2C432C36FE0CC0E89440F8C914DB
:100B800040F434FE05C032FC03C0F32DFE7E4F2E30
:100B9000892C44FE95C0FE01EC0DF11D808180334F
:100BA00009F087C0242D297E422E842D8870582E6E
:100BB00043FC95C040FE8FC09C2C821418F42C0C72
:100BC000922C981844FE91C0B70180E390E00E94F7
:100BD000A10642FE09C088E790E041FE02C088E518
:100BE00090E0B7010E94A106C91408F48AC0CA9413
:100BF000D12C9FEFC91AD90ACA0CDB1CF6018291CD
:100C00006F01B70190E00E94A106AC14BD04B1F7DA
:100C10004FCF60817181072E000C880B990B0E5FFE
:100C20001F4F92CFD32CE894D4F82AE030E08537D8
:100C300039F1232D297FD22E8F3601F148F48835E2
:100C4000A9F0F701868197812B96E2E10C944B077E
:100C5000803749F08837A9F7D4FE02C06894D2F8EB
:100C600020E130E00DC06894D4F8F6CF34FE03C024
:100C7000822F8660D82E20E132E002C028E030E0EA
:100C8000F801D7FE0FC060817181828193810C5F72
:100C90001F4FA5010E94D106C82ECA183D2CE8940A
:100CA00037F867CF6081718190E080E00E5F1F4F61
:100CB000F0CF42FC02C0839478CF8394839475CFA5
:100CC000842D867809F471CFF6CFB70180E290E0E9
:100CD0000E94A10683948214C0F3512C73CF522C2E
:100CE0005818821408F46ECFF8CF842D867809F452
:100CF0007BCF8BE241FE80E247FC8DE2B70190E0C2
:100D000071CFB70180E390E00E94A1069A946CCF66
:100D10008FEF9FEF99CFFC0105906150704001105B
:100D2000D8F7809590958E0F9F1F0895FC01615014
:100D3000704001900110D8F7809590958E0F9F1FFD
:100D400008950F931F93CF93DF93182F092FEB0173
:100D50008B8181FD09C01FEF0FEF812F902FDF9155
:100D6000CF911F910F91089582FF14C02E813F8172
:100D70008C819D81281739073CF4E881F981CF01E6
:100D800001969983888310838E819F8101969F832A
:100D90008E83E3CFE885F985812F0995892BA1F30F
:100DA000DACFFA01AA27283051F1203181F1E894F5
:100DB0006F936E7F6E5F7F4F8F4F9F4FAF4FB1E04E
:100DC0003ED0B4E03CD0670F781F891F9A1FA11D49
:100DD000680F791F8A1F911DA11D6A0F711D811D4A
:100DE000911DA11D20D009F468943F912AE0269F0F
:100DF00011243019305D3193DEF6CF010895462F6E
:100E00004770405D4193B3E00FD0C9F7F6CF462F4E
:100E10004F70405D4A3318F0495D31FD40524193B7
:100E200002D0A9F7EACFB4E0A69597958795779574
:100E30006795BA95C9F700976105710508959B01FB
:100E4000AC010A2E06945795479537952795BA9584
:100E5000C9F7620F731F841F951FA01D08952F925D
:100E60003F924F925F926F927F928F929F92AF923A
:100E7000BF92CF92DF92EF92FF920F931F93CF9387
:100E8000DF93CDB7DEB7CA1BDB0B0FB6F894DEBF1E
:100E90000FBECDBF09942A88398848885F846E8444
:100EA0007D848C849B84AA84B984C884DF80EE808E
:100EB000FD800C811B81AA81B981CE0FD11D0FB697
:100EC000F894DEBF0FBECDBFED010895F894FFCFBB
:100ED000070000000024018400B1007101E200C09D
:100EE00000D400EE02F102F402F702FB02FF02025C
:100EF00003050308030B030E031103140317031A5E
:100F00000320032503710298032703C50329032B3C
:100F1000032D032F030204310334031A0337033C68
:100F200003410330049B034603EB01500248034A8C
:100F3000036F03B5034C034F0352031A035A035FB5
:100F40000364036903710373035A0275039F03E784
:100F500001C20277037A037D031A03800385038AA3
:100F6000038F0394039A039D03A103A803AF03B364
:100F7000031A031A031A03B7031A03F401ED01BCA1
:100F800003C203C703CA03CD03D003D303D603D9D7
:100F900003DC03DF03E203E603EB03F003F503FAEC
:100FA00003FF0304040C04140419041E0424042A7B
:100FB0000432040D0A004F4E004F464600444F577E
:100FC0004E0020205550005368616C6C20776520DE
:100FD000626567696E3F0052455345543A20737409
:100FE0006172740052455345543A20656E64004363
:100FF000415053204C4F434B3A202573200A004B5D
:1010000045592025733A2028307825303278292018
:1010100025730A005245534554205741524E494EBC
:1010200047004C4F53542053594E43004F55545092
:10103000555420425546464552204F564552464C3F
:101040004F5700434F4E54524F4C4C45522046414F
:10105000494C0053454C4620544553542046414981
:101060004C00424547494E20504F5745522055505D
:10107000204B45592053545245414D00454E442084
:10108000504F574552205550204B455920535452EC
:1010900045414D00494E5445525255505400285533
:1010A0004E4B4E4F574E29005350454349414C3A01
:1010B0002028307825303278292025730A007E6078
:1010C0000031210032220033C2A30034C2A3003514
:1010D0002500365E00372600382A003928003029DE
:1010E000002D5F003D2B005C7C003C4E2F413E00FC
:1010F0004B50203000510052005900550049004F1C
:10110000005B7B005D7D004B502031004B50203256
:10111000004B50203300440048004A003B3A002373
:101120004000525F424C414E4B004B502034004B2C
:10113000502035004B502036004C5F424C414E4B06
:10114000005A00580056002C3C002E3E002F3F0055
:101150004B50202E004B502037004B502038004B76
:1011600050203900535041434500425300544142FE
:10117000004B5020454E540052455455524E0045A8
:1011800053430044454C004B50202D0052494748E2
:1011900054004C4546540046310046320046330068
:1011A000463400463500463600463700463800468D
:1011B0003900463130004B502028004B5020290088
:1011C0004B50202F004B50202A004B50202B004822
:1011D000454C50004C5F534849465400525F5348B9
:1011E0004946540043415053004354524C004C5F15
:1011F000414C5400525F414C54004C5F414D4947B3
:0A1200004100525F414D4947410093
:00000001FF
